{
  "contractName": "CertificateRegistry",
  "abi": [
    {
      "constant": true,
      "inputs": [
        {
          "name": "",
          "type": "uint256"
        }
      ],
      "name": "certificates",
      "outputs": [
        {
          "name": "csn",
          "type": "uint256"
        },
        {
          "name": "cid",
          "type": "string"
        },
        {
          "name": "emailId",
          "type": "string"
        }
      ],
      "payable": false,
      "stateMutability": "view",
      "type": "function",
      "signature": "0x663b3e22"
    },
    {
      "anonymous": false,
      "inputs": [
        {
          "indexed": false,
          "name": "csn",
          "type": "uint256"
        },
        {
          "indexed": false,
          "name": "cid",
          "type": "string"
        },
        {
          "indexed": false,
          "name": "emailId",
          "type": "string"
        }
      ],
      "name": "CertificateAdded",
      "type": "event",
      "signature": "0x5b01e239b88a10b4590b527ba0533cd987246d66da49cbb41a05628387fd2941"
    },
    {
      "constant": false,
      "inputs": [
        {
          "name": "_csn",
          "type": "uint256"
        },
        {
          "name": "_cid",
          "type": "string"
        },
        {
          "name": "_emailId",
          "type": "string"
        }
      ],
      "name": "addCertificate",
      "outputs": [],
      "payable": false,
      "stateMutability": "nonpayable",
      "type": "function",
      "signature": "0x995b2767"
    },
    {
      "constant": true,
      "inputs": [
        {
          "name": "_csn",
          "type": "uint256"
        }
      ],
      "name": "getCertificate",
      "outputs": [
        {
          "name": "",
          "type": "uint256"
        },
        {
          "name": "",
          "type": "string"
        },
        {
          "name": "",
          "type": "string"
        }
      ],
      "payable": false,
      "stateMutability": "view",
      "type": "function",
      "signature": "0x51640fee"
    }
  ],
  "bytecode": "0x608060405234801561001057600080fd5b50610abb806100206000396000f3fe608060405260043610610057576000357c0100000000000000000000000000000000000000000000000000000000900463ffffffff16806351640fee1461005c578063663b3e2214610183578063995b2767146102aa575b600080fd5b34801561006857600080fd5b506100956004803603602081101561007f57600080fd5b8101908080359060200190929190505050610413565b604051808481526020018060200180602001838103835285818151815260200191508051906020019080838360005b838110156100df5780820151818401526020810190506100c4565b50505050905090810190601f16801561010c5780820380516001836020036101000a031916815260200191505b50838103825284818151815260200191508051906020019080838360005b8381101561014557808201518184015260208101905061012a565b50505050905090810190601f1680156101725780820380516001836020036101000a031916815260200191505b509550505050505060405180910390f35b34801561018f57600080fd5b506101bc600480360360208110156101a657600080fd5b8101908080359060200190929190505050610624565b604051808481526020018060200180602001838103835285818151815260200191508051906020019080838360005b838110156102065780820151818401526020810190506101eb565b50505050905090810190601f1680156102335780820380516001836020036101000a031916815260200191505b50838103825284818151815260200191508051906020019080838360005b8381101561026c578082015181840152602081019050610251565b50505050905090810190601f1680156102995780820380516001836020036101000a031916815260200191505b509550505050505060405180910390f35b3480156102b657600080fd5b50610411600480360360608110156102cd57600080fd5b8101908080359060200190929190803590602001906401000000008111156102f457600080fd5b82018360208201111561030657600080fd5b8035906020019184600183028401116401000000008311171561032857600080fd5b91908080601f016020809104026020016040519081016040528093929190818152602001838380828437600081840152601f19601f8201169050808301925050505050505091929192908035906020019064010000000081111561038b57600080fd5b82018360208201111561039d57600080fd5b803590602001918460018302840111640100000000831117156103bf57600080fd5b91908080601f016020809104026020016040519081016040528093929190818152602001838380828437600081840152601f19601f82011690508083019250505050505050919291929050505061077e565b005b60006060806000806000868152602001908152602001600020905060008160000154141515156104d1576040517f08c379a00000000000000000000000000000000000000000000000000000000081526004018080602001828103825260288152602001807f4365727469666963617465207769746820746869732043534e20646f6573206e81526020017f6f7420657869737400000000000000000000000000000000000000000000000081525060400191505060405180910390fd5b80600001548160010182600201818054600181600116156101000203166002900480601f0160208091040260200160405190810160405280929190818152602001828054600181600116156101000203166002900480156105735780601f1061054857610100808354040283529160200191610573565b820191906000526020600020905b81548152906001019060200180831161055657829003601f168201915b50505050509150808054600181600116156101000203166002900480601f01602080910402602001604051908101604052809291908181526020018280546001816001161561010002031660029004801561060f5780601f106105e45761010080835404028352916020019161060f565b820191906000526020600020905b8154815290600101906020018083116105f257829003601f168201915b50505050509050935093509350509193909250565b6000602052806000526040600020600091509050806000015490806001018054600181600116156101000203166002900480601f0160208091040260200160405190810160405280929190818152602001828054600181600116156101000203166002900480156106d65780601f106106ab576101008083540402835291602001916106d6565b820191906000526020600020905b8154815290600101906020018083116106b957829003601f168201915b505050505090806002018054600181600116156101000203166002900480601f0160208091040260200160405190810160405280929190818152602001828054600181600116156101000203166002900480156107745780601f1061074957610100808354040283529160200191610774565b820191906000526020600020905b81548152906001019060200180831161075757829003601f168201915b5050505050905083565b600080600085815260200190815260200160002060000154141515610831576040517f08c379a00000000000000000000000000000000000000000000000000000000081526004018080602001828103825260288152602001807f4365727469666963617465207769746820746869732043534e20616c7265616481526020017f792065786973747300000000000000000000000000000000000000000000000081525060400191505060405180910390fd5b6108396109c8565b606060405190810160405280858152602001848152602001838152509050806000808681526020019081526020016000206000820151816000015560208201518160010190805190602001906108909291906109ea565b5060408201518160020190805190602001906108ad9291906109ea565b509050507f5b01e239b88a10b4590b527ba0533cd987246d66da49cbb41a05628387fd2941848484604051808481526020018060200180602001838103835285818151815260200191508051906020019080838360005b8381101561091f578082015181840152602081019050610904565b50505050905090810190601f16801561094c5780820380516001836020036101000a031916815260200191505b50838103825284818151815260200191508051906020019080838360005b8381101561098557808201518184015260208101905061096a565b50505050905090810190601f1680156109b25780820380516001836020036101000a031916815260200191505b509550505050505060405180910390a150505050565b6060604051908101604052806000815260200160608152602001606081525090565b828054600181600116156101000203166002900490600052602060002090601f016020900481019282601f10610a2b57805160ff1916838001178555610a59565b82800160010185558215610a59579182015b82811115610a58578251825591602001919060010190610a3d565b5b509050610a669190610a6a565b5090565b610a8c91905b80821115610a88576000816000905550600101610a70565b5090565b9056fea165627a7a72305820d7401acd7b21bcd1cef8228fe0d69cc5b2910e65ef05bc16b23da5186d861b970029",
  "source": "// SPDX-License-Identifier: MIT\r\npragma solidity >=0.4.22 <0.9.0;\r\n\r\ncontract CertificateRegistry {\r\n    struct Certificate {\r\n        uint256 csn; // Certificate Serial Number\r\n        string cid; // IPFS Hash (CID)\r\n        string emailId;\r\n    }\r\n\r\n    mapping(uint256 => Certificate) public certificates;\r\n\r\n    event CertificateAdded(uint256 csn, string cid, string emailId);\r\n\r\n    function addCertificate(uint256 _csn, string memory _cid, string memory _emailId) public {\r\n        // Check if the certificate with the given CSN already exists\r\n        require(certificates[_csn].csn == 0, \"Certificate with this CSN already exists\");\r\n\r\n        // Create a new certificate\r\n        Certificate memory newCertificate = Certificate(_csn, _cid, _emailId);\r\n\r\n        // Store the certificate in the mapping\r\n        certificates[_csn] = newCertificate;\r\n\r\n        // Emit an event\r\n        emit CertificateAdded(_csn, _cid, _emailId);\r\n    }\r\n\r\n    function getCertificate(uint256 _csn) public view returns (uint256, string memory, string memory) {\r\n        Certificate storage cert = certificates[_csn];\r\n        require(cert.csn != 0, \"Certificate with this CSN does not exist\");\r\n        return (cert.csn, cert.cid, cert.emailId);\r\n    }\r\n}\r\n",
  "sourcePath": "D:/PC/FYP/test_smart_contract/contracts/CertificateRegistry.sol",
  "compiler": {
    "name": "solc",
    "version": "0.5.0+commit.1d4f565a.Emscripten.clang"
  },
  "schemaVersion": "3.0.2",
  "updatedAt": "2024-03-11T14:15:33.268Z",
  "devdoc": {
    "methods": {}
  },
  "userdoc": {
    "methods": {}
  }
}