{
  "contractName": "CertificateRegistryV2",
  "abi": [
    {
      "constant": true,
      "inputs": [
        {
          "name": "",
          "type": "uint256"
        }
      ],
      "name": "certificates",
      "outputs": [
        {
          "name": "csn",
          "type": "uint256"
        },
        {
          "name": "cid",
          "type": "string"
        },
        {
          "name": "emailId",
          "type": "string"
        }
      ],
      "payable": false,
      "stateMutability": "view",
      "type": "function",
      "signature": "0x663b3e22"
    },
    {
      "constant": true,
      "inputs": [
        {
          "name": "",
          "type": "uint256"
        }
      ],
      "name": "csnExists",
      "outputs": [
        {
          "name": "",
          "type": "bool"
        }
      ],
      "payable": false,
      "stateMutability": "view",
      "type": "function",
      "signature": "0xef0a730c"
    },
    {
      "anonymous": false,
      "inputs": [
        {
          "indexed": false,
          "name": "csn",
          "type": "uint256"
        },
        {
          "indexed": false,
          "name": "cid",
          "type": "string"
        },
        {
          "indexed": false,
          "name": "emailId",
          "type": "string"
        }
      ],
      "name": "CertificateAdded",
      "type": "event",
      "signature": "0x5b01e239b88a10b4590b527ba0533cd987246d66da49cbb41a05628387fd2941"
    },
    {
      "constant": false,
      "inputs": [
        {
          "components": [
            {
              "name": "csn",
              "type": "uint256"
            },
            {
              "name": "cid",
              "type": "string"
            },
            {
              "name": "emailId",
              "type": "string"
            }
          ],
          "name": "_certificates",
          "type": "tuple[]"
        }
      ],
      "name": "addCertificates",
      "outputs": [],
      "payable": false,
      "stateMutability": "nonpayable",
      "type": "function",
      "signature": "0xf6f86d7a"
    },
    {
      "constant": true,
      "inputs": [
        {
          "name": "_csns",
          "type": "uint256[]"
        }
      ],
      "name": "getBufferForCSNs",
      "outputs": [
        {
          "components": [
            {
              "name": "csn",
              "type": "uint256"
            },
            {
              "name": "cid",
              "type": "string"
            },
            {
              "name": "emailId",
              "type": "string"
            }
          ],
          "name": "",
          "type": "tuple[]"
        }
      ],
      "payable": false,
      "stateMutability": "view",
      "type": "function",
      "signature": "0xa21ba876"
    }
  ],
  "bytecode": "0x608060405234801561001057600080fd5b50610e76806100206000396000f3fe608060405260043610610062576000357c0100000000000000000000000000000000000000000000000000000000900463ffffffff168063663b3e2214610067578063a21ba876146100a6578063ef0a730c146100e3578063f6f86d7a14610120575b600080fd5b34801561007357600080fd5b5061008e60048036036100899190810190610a32565b610149565b60405161009d93929190610cab565b60405180910390f35b3480156100b257600080fd5b506100cd60048036036100c891908101906109f1565b6102a3565b6040516100da9190610c2e565b60405180910390f35b3480156100ef57600080fd5b5061010a60048036036101059190810190610a32565b610501565b6040516101179190610c50565b60405180910390f35b34801561012c57600080fd5b50610147600480360361014291908101906109b0565b610521565b005b6000602052806000526040600020600091509050806000015490806001018054600181600116156101000203166002900480601f0160208091040260200160405190810160405280929190818152602001828054600181600116156101000203166002900480156101fb5780601f106101d0576101008083540402835291602001916101fb565b820191906000526020600020905b8154815290600101906020018083116101de57829003601f168201915b505050505090806002018054600181600116156101000203166002900480601f0160208091040260200160405190810160405280929190818152602001828054600181600116156101000203166002900480156102995780601f1061026e57610100808354040283529160200191610299565b820191906000526020600020905b81548152906001019060200180831161027c57829003601f168201915b5050505050905083565b60608082516040519080825280602002602001820160405280156102e157816020015b6102ce6106d2565b8152602001906001900390816102c65790505b50905060008090505b83518110156104f7576000806000868481518110151561030657fe5b9060200190602002015181526020019081526020016000209050600081600001541415151561036a576040517f08c379a000000000000000000000000000000000000000000000000000000000815260040161036190610c6b565b60405180910390fd5b6103726106f4565b60606040519081016040528083600001548152602001836001018054600181600116156101000203166002900480601f0160208091040260200160405190810160405280929190818152602001828054600181600116156101000203166002900480156104205780601f106103f557610100808354040283529160200191610420565b820191906000526020600020905b81548152906001019060200180831161040357829003601f168201915b50505050508152602001836002018054600181600116156101000203166002900480601f0160208091040260200160405190810160405280929190818152602001828054600181600116156101000203166002900480156104c25780601f10610497576101008083540402835291602001916104c2565b820191906000526020600020905b8154815290600101906020018083116104a557829003601f168201915b505050505081525090508084848151811015156104db57fe5b90602001906020020181905250505080806001019150506102ea565b5080915050919050565b60016020528060005260406000206000915054906101000a900460ff1681565b60008090505b81518110156106ce576000828281518110151561054057fe5b906020019060200201516000015190506001600082815260200190815260200160002060009054906101000a900460ff161515156105b3576040517f08c379a00000000000000000000000000000000000000000000000000000000081526004016105aa90610c8b565b60405180910390fd5b600180600083815260200190815260200160002060006101000a81548160ff02191690831515021790555082828151811015156105ec57fe5b9060200190602002015160008083815260200190815260200160002060008201518160000155602082015181600101908051906020019061062e929190610716565b50604082015181600201908051906020019061064b929190610716565b509050507f5b01e239b88a10b4590b527ba0533cd987246d66da49cbb41a05628387fd294181848481518110151561067f57fe5b9060200190602002015160200151858581518110151561069b57fe5b90602001906020020151604001516040516106b893929190610cab565b60405180910390a1508080600101915050610527565b5050565b6060604051908101604052806000815260200160608152602001606081525090565b6060604051908101604052806000815260200160608152602001606081525090565b828054600181600116156101000203166002900490600052602060002090601f016020900481019282601f1061075757805160ff1916838001178555610785565b82800160010185558215610785579182015b82811115610784578251825591602001919060010190610769565b5b5090506107929190610796565b5090565b6107b891905b808211156107b457600081600090555060010161079c565b5090565b90565b600082601f83011215156107ce57600080fd5b81356107e16107dc82610d1d565b610cf0565b9150818183526020840193506020810190508360005b83811015610827578135860161080d888261090c565b8452602084019350602083019250506001810190506107f7565b5050505092915050565b600082601f830112151561084457600080fd5b813561085761085282610d45565b610cf0565b9150818183526020840193506020810190508385602084028201111561087c57600080fd5b60005b838110156108ac5781610892888261099c565b84526020840193506020830192505060018101905061087f565b5050505092915050565b600082601f83011215156108c957600080fd5b81356108dc6108d782610d6d565b610cf0565b915080825260208301602083018583830111156108f857600080fd5b610903838284610de9565b50505092915050565b60006060828403121561091e57600080fd5b6109286060610cf0565b905060006109388482850161099c565b600083015250602082013567ffffffffffffffff81111561095857600080fd5b610964848285016108b6565b602083015250604082013567ffffffffffffffff81111561098457600080fd5b610990848285016108b6565b60408301525092915050565b60006109a88235610ddf565b905092915050565b6000602082840312156109c257600080fd5b600082013567ffffffffffffffff8111156109dc57600080fd5b6109e8848285016107bb565b91505092915050565b600060208284031215610a0357600080fd5b600082013567ffffffffffffffff811115610a1d57600080fd5b610a2984828501610831565b91505092915050565b600060208284031215610a4457600080fd5b6000610a528482850161099c565b91505092915050565b6000610a6682610da6565b80845260208401935083602082028501610a7f85610d99565b60005b84811015610ab8578383038852610a9a838351610bc8565b9250610aa582610dbc565b9150602088019750600181019050610a82565b508196508694505050505092915050565b610ad281610dc9565b82525050565b6000610ae382610db1565b808452610af7816020860160208601610df8565b610b0081610e2b565b602085010191505092915050565b6000602882527f4365727469666963617465207769746820746869732043534e20646f6573206e60208301527f6f742065786973740000000000000000000000000000000000000000000000006040830152606082019050919050565b6000602882527f4365727469666963617465207769746820746869732043534e20616c7265616460208301527f79206578697374730000000000000000000000000000000000000000000000006040830152606082019050919050565b6000606083016000830151610be06000860182610c1f565b5060208301518482036020860152610bf88282610ad8565b91505060408301518482036040860152610c128282610ad8565b9150508091505092915050565b610c2881610dd5565b82525050565b60006020820190508181036000830152610c488184610a5b565b905092915050565b6000602082019050610c656000830184610ac9565b92915050565b60006020820190508181036000830152610c8481610b0e565b9050919050565b60006020820190508181036000830152610ca481610b6b565b9050919050565b6000606082019050610cc06000830186610c1f565b8181036020830152610cd28185610ad8565b90508181036040830152610ce68184610ad8565b9050949350505050565b6000604051905081810181811067ffffffffffffffff82111715610d1357600080fd5b8060405250919050565b600067ffffffffffffffff821115610d3457600080fd5b602082029050602081019050919050565b600067ffffffffffffffff821115610d5c57600080fd5b602082029050602081019050919050565b600067ffffffffffffffff821115610d8457600080fd5b601f19601f8301169050602081019050919050565b6000602082019050919050565b600081519050919050565b600081519050919050565b6000602082019050919050565b60008115159050919050565b6000819050919050565b6000819050919050565b82818337600083830152505050565b60005b83811015610e16578082015181840152602081019050610dfb565b83811115610e25576000848401525b50505050565b6000601f19601f830116905091905056fea265627a7a72305820bcf0ef712c08a2da814edead939282b646294342ec2e78699b3a67ca1e9115da6c6578706572696d656e74616cf50037",
  "source": "pragma solidity >=0.4.22 <0.9.0;\r\n\r\npragma experimental ABIEncoderV2; // Enable experimental ABI encoder v2\r\n\r\ncontract CertificateRegistryV2 {\r\n    struct Certificate {\r\n        uint256 csn; // Certificate Serial Number\r\n        string cid; // IPFS Hash (CID)\r\n        string emailId;\r\n    }\r\n\r\n    mapping(uint256 => Certificate) public certificates;\r\n    mapping(uint256 => bool) public csnExists; // Mapping to check if a given CSN exists\r\n\r\n    event CertificateAdded(uint256 csn, string cid, string emailId);\r\n\r\n    // Function to add multiple certificates at once\r\n    function addCertificates(Certificate[] memory _certificates) public {\r\n        for (uint256 i = 0; i < _certificates.length; i++) {\r\n            uint256 _csn = _certificates[i].csn;\r\n            require(!csnExists[_csn], \"Certificate with this CSN already exists\");\r\n\r\n            // Mark the CSN as existing\r\n            csnExists[_csn] = true;\r\n\r\n            // Store the certificate in the mapping\r\n            certificates[_csn] = _certificates[i];\r\n\r\n            // Emit an event\r\n            emit CertificateAdded(_csn, _certificates[i].cid, _certificates[i].emailId);\r\n        }\r\n    }\r\n\r\n    // Struct to hold buffer object\r\n    struct Buffer {\r\n        uint256 csn;\r\n        string cid;\r\n        string emailId;\r\n    }\r\n\r\n    // Function to return a list of buffer objects for the input parameter list of CSNs\r\n    function getBufferForCSNs(uint256[] memory _csns) public view returns (Buffer[] memory) {\r\n        Buffer[] memory buffers = new Buffer[](_csns.length);\r\n\r\n        for (uint256 i = 0; i < _csns.length; i++) {\r\n            Certificate storage cert = certificates[_csns[i]];\r\n            require(cert.csn != 0, \"Certificate with this CSN does not exist\");\r\n\r\n            // Create buffer object\r\n            Buffer memory buffer = Buffer(cert.csn, cert.cid, cert.emailId);\r\n            buffers[i] = buffer;\r\n        }\r\n\r\n        return buffers;\r\n    }\r\n}\r\n",
  "sourcePath": "D:/PC/FYP/test_smart_contract/contracts/CertificateRegistryV2.sol",
  "compiler": {
    "name": "solc",
    "version": "0.5.0+commit.1d4f565a.Emscripten.clang"
  },
  "schemaVersion": "3.0.2",
  "updatedAt": "2024-03-15T14:16:22.839Z",
  "devdoc": {
    "methods": {}
  },
  "userdoc": {
    "methods": {}
  }
}